:020000040800F2
:1000000000000120C5020008CB020008CF02000852
:1000100041030008450300088D03000800000000AC
:10002000000000000000000000000000D5030008F0
:10003000D903000800000000DD030008B11E00081D
:10004000F1030008F1030008F1030008F1030008C0
:10005000F1030008F10300085109000869090008CC
:100060008109000899090008B1090008F103000896
:10007000F1030008F1030008F1030008F103000890
:10008000F1030008F1030008F1030008000000007C
:10009000000000000000000000000000C909000886
:1000A000F1030008FD1D0008F1030008F10300083A
:1000B000F1030008F1030008F1030008F103000850
:1000C000F1030008F1030008F1030008F103000840
:1000D000F1030008F1030008F1030008000000002C
:1000E0005D0A0008F1030008F103000800000000A9
:1000F000000000000000000000000000F103000804
:1001000000000000F1030008F1030008F1030008FB
:1001100000000000000000000000000000000000DF
:10012000F1030008F1030008F1030008F1030008DF
:10013000F1030008000000000000000000000000C3
:10014000000000000000000000000000F1030008B3
:10015000F1030008F1030008F1030008F1030008AF
:10016000F1030008F1030008000000000000000097
:10017000000000000000000000000000000000007F
:1001800000000000F1030008000000000000000073
:10019000F103000800B583B000F0BAF9384B394AD2
:1001A0001360394A1360394900E02146384B9942BF
:1001B0000BD20A684B6801F10C0488689842F4D9A4
:1001C0001168196004330432F8E72E4B1A68314B7A
:1001D0009A4200D0FEE72C4B1A682F4B9A42F9D175
:1001E000274B2E4A13602E4A13602E4B05E0002049
:1001F000106004329342FAD80B462B4A934204D241
:10020000194651F8082B5B68F4E7244B1B6813B9B7
:10021000234B1B6803B1FEE700F086F9694601A88D
:1002200000F022F9214C224BE41AA4100025AC4224
:1002300014DC204C204BE41AA4100025AC4213DC43
:100240000099019802F0ECFB05461C4C1C4BE41A8B
:10025000A410002C0EDC284600F0E2F8144B53F8F2
:10026000253098470135E2E7134B53F8253098477E
:100270000135E3E7013C124B53F824309847E8E797
:10028000BABADECA0000002084000020F40300088F
:100290000C040008785634123254769888000020F6
:1002A000DC0200200C0400081C0400081C040008E8
:1002B0001C0400081C0400081C0400081C0400089E
:1002C0001C04000808B5FFF765FF00BEFEE71EF03E
:1002D000040F0CBFEFF30880EFF309807146414A29
:1002E00010472DE9F04182B004468846124B5E6B00
:1002F0009F6B9D6A1B6B13F0020F03D00E4BDB6AE2
:10030000002B0CDB0D4800F0B7F8CDF800803B4621
:1003100032462946204600F00BF900BEFEE74BF6B8
:10032000AB6100F07FF90028ECD0034B4FF00042A6
:10033000DA6202B0BDE8F08100ED00E0545600083A
:1003400000BEFEE71EF0040F0CBFEFF30880EFF3D2
:1003500009807146244A10472DE9F04182B00446D5
:100360008846084B5E6B9F6B9D6A074800F084F8D7
:10037000CDF800803B4632462946204600F0D8F8AA
:1003800000BEFEE700ED00E0645600081EF0040F1A
:100390000CBFEFF30880EFF309807146134A104752
:1003A0002DE9F04182B004468846084B5E6B9F6B96
:1003B0009D6A074800F060F8CDF800803B46324661
:1003C0002946204600F0B4F800BEFEE700ED00E04C
:1003D0007056000800BEFEE700BEFEE700BEFEE766
:1003E00070470000E302000859030008A103000859
:0403F00000BEFEE766
:1003F400CC5B00080000002088000020CC5B0008D3
:10040400000000100000001088000020E00200201E
:080414000000001000000010C0
:10042000FEE7000008B503460C4A12685AB10B4AB1
:100430001068033323F003030344094A934206D8A8
:10044000064A136008BD054A06491160EFE704F04B
:10045000FDFB0C2303604FF0FF30F3E78C0000201E
:1004600000FC0020E002002001230360014B0B6030
:10047000704700BF040000200FB400B583B004AB88
:1004800053F8042B01938021064804F011FC002846
:1004900003DD0146034800F037F803B05DF804EBD4
:1004A00004B07047940000202DE9F04385B0044665
:1004B0000F4643560BB10E461EE004252846214642
:1004C000ABBE0446384605B0BDE8F08314F9011B05
:1004D00004AA1A4402F8101C0133AB42F6D304AA52
:1004E0001344002203F8102C4FF00408E94640465C
:1004F0004946ABBE8046761B002EE3D03546102E13
:1005000028BF10250023E8E708B5FFF7CDFF08BD99
:1005100008B500F097F8024A024B9A6008BD00BF88
:100520000000000800ED00E008B500F0ABF808BDE1
:10053000F8B504460D4617461E462748FFF79CFFB0
:1005400021682648FFF798FF61682548FFF794FF68
:10055000A1682448FFF790FFE1682348FFF78CFF6C
:1005600021692248FFF788FF61692148FFF784FF6E
:10057000A1692048FFF780FFE1691F48FFF77CFF72
:100580001E48FFF779FF29461D48FFF775FF1D4CF0
:10059000E16A1D48FFF770FF216B1C48FFF76CFFF5
:1005A000E16B1B48FFF768FF15F0800F0AD115F4C7
:1005B000004F0CD11748FFF75FFF06991648FFF769
:1005C0005BFFF8BD39461548FFF756FFEFE73146A8
:1005D0001348FFF751FFEDE738550008485500086C
:1005E00058550008685500087855000888550008D7
:1005F00098550008A8550008B8550008C8550008C7
:10060000D455000800ED00E0E4550008F45500085A
:1006100004560008345600083C56000814560008DA
:100620002456000883691A888A4201D00020704746
:100630000268033A012A03D802338361012070471C
:10064000002070470C4B1A6842F001021A6000212A
:1006500099601A6822F0847222F480321A60074A84
:100660005A601A6822F480221A60D960044B4FF055
:1006700000629A60704700BF0038024010300024CA
:1006800000ED00E0224B9B6803F00C03042B14D018
:10069000082B16D01BB11F4B1F4A1A6002E01D4BDE
:1006A0001D4A1A601A4B9B68C3F303131B4AD15CA3
:1006B000184A1368CB4013607047164B164A1A60ED
:1006C000F0E7134B5A685B6803F03F0312F4800FA6
:1006D00013D0114AB2FBF3F20D4B5B68C3F38813DE
:1006E00003FB02F30A4A5268C2F30142013252008C
:1006F000B3FBF2F3074A1360D4E7074AB2FBF3F205
:10070000034B5B68C3F3881303FB02F3EAE700BF04
:10071000003802400C0000200024F400805600083D
:1007200008B5002001F0C0FC08BD08B50146002056
:1007300001F010FD08BD08B5002001F001FD08BD65
:1007400008B5002001F016FD08BD70B582B0002686
:10075000CDF8026001248DF801408DF80340052595
:1007600002A901F8085D204600F08EFD32462946B8
:10077000204600F055FD02B070BD0000044B1B7810
:100780002BB9034B01221A70024B00221A607047EA
:100790001401002018010020044B1B782BB9034BD7
:1007A00002221A70024B00221A60704714010020C6
:1007B00018010020044B1B782BB9034B03221A703D
:1007C000024B00221A60704714010020180100201B
:1007D000044B1B782BB9034B04221A70024B0022E6
:1007E0001A607047140100201801002008B54D4B15
:1007F0001B78002B00F09580013B032B00F28A80D0
:10080000DFE803F002364D64474B1B6893B1022BBF
:1008100016D0052B1AD0072B1ED00A2B22D00F2B57
:100820007BD100220521012000F0FAFC3D4B002283
:100830001A7072E001220521104600F0F1FC6CE014
:1008400000220521012000F0EBFC66E001220521D9
:10085000104600F0E5FC60E000220521012000F0D8
:10086000DFFC5AE001220521104600F0D9FC54E0DB
:100870002D4B1B683BB1042B0BD00C2B4DD12A4BBD
:1008800000221A604DE001220521104600F0C8FC4C
:1008900043E000220521012000F0C2FC3DE0224B94
:1008A0001B6813F0010F0CD01F4B1B68092B34D9A8
:1008B00000220521012000F0B3FC1A4B00221A701F
:1008C0002BE00521012000F0D4FCEDE7164B1B685E
:1008D00073B1022B12D0042B16D0062B1DD100228F
:1008E0000521012000F09CFC0E4B00221A7014E040
:1008F00001220521104600F093FC0EE000220521A4
:10090000012000F08DFC08E001220521104600F0D6
:1009100087FC02E0034B00221A70034A136801337C
:10092000136008BD1401002018010020012303FA00
:1009300000F0014B58617047003C0140034B5B697C
:1009400023FA00F000F00100704700BF003C0140B6
:1009500008B50020FFF7EAFF024B1B6803B1984778
:1009600008BD00BF1C01002008B50120FFF7DEFF15
:10097000024B5B6803B1984708BD00BF1C01002013
:1009800008B50220FFF7D2FF024B9B6803B19847DE
:1009900008BD00BF1C01002008B50320FFF7C6FFFB
:1009A000024BDB6803B1984708BD00BF1C01002063
:1009B00008B50420FFF7BAFF024B1B6903B1984743
:1009C00008BD00BF1C01002008B50520FFF7B6FFD9
:1009D000012814D00620FFF7B1FF012818D0072006
:1009E000FFF7ACFF01281CD00820FFF7A7FF012864
:1009F00020D00920FFF7A2FF012824D008BD052040
:100A0000FFF794FF144B5B69002BE3D09847E1E7B5
:100A10000620FFF78BFF104B9B69002BDFD0984718
:100A2000DDE70720FFF782FF0B4BDB69002BDBD0F4
:100A30009847D9E70820FFF779FF074B1B6A002B7F
:100A4000D7D09847D5E70920FFF770FF024B5B6AC4
:100A5000002BD3D09847D1E71C01002008B50A200D
:100A6000FFF76CFF012819D00B20FFF767FF012863
:100A70001DD00C20FFF762FF012821D00D20FFF7C9
:100A80005DFF012825D00E20FFF758FF012829D04F
:100A90000F20FFF753FF01282DD008BD0A20FFF7D4
:100AA00045FF194B9B6A002BDED09847DCE70B20F3
:100AB000FFF73CFF144BDB6A002BDAD09847D8E7EE
:100AC0000C20FFF733FF104B1B6B002BD6D0984741
:100AD000D4E70D20FFF72AFF0B4B5B6B002BD2D026
:100AE0009847D0E70E20FFF721FF074B9B6B002BA9
:100AF000CED09847CCE70F20FFF718FF024BDB6BF7
:100B0000002BCAD09847C8E71C01002007280FD83F
:100B1000DFE800F0041006080A0E0E0C06487047C5
:100B200006487047064870470648704706487047B1
:100B3000002070470548704700000240000802404E
:100B4000000C024000100240001C02400004024061
:100B500038B50C461546FFF7D9FFB8B103460F2C40
:100B600014D8032D3FD8DFE805F0021221300168C8
:100B70006400012202FA04F021EA000119601968F8
:100B8000144402FA04F421EA04041C6038BD01682C
:100B90006400012202FA04F0014319601968144448
:100BA00002FA04F421EA04041C60EFE7016864001F
:100BB000012202FA04F021EA0001196019681444C4
:100BC00002FA04F40C431C60E0E7016864000122AF
:100BD00002FA04F0014319601968144402FA04F49B
:100BE0000C431C60D2E701686400012202FA04F0A1
:100BF00021EA000119601968144402FA04F421EA98
:100C000004041C60C2E770B50C4616461D46FFF78B
:100C10007DFF20B303460F2C21D8012E0BD0426854
:100C20000121A14022EA01024260032D41D8DFE800
:100C300005F00817253342680121A1400A434260AC
:100C4000F3E799686400012202FA04F021EA000146
:100C5000996099681444A24021EA02029A6070BD2A
:100C600099686400012202FA04F0014399609968CE
:100C70001444A24021EA02029A60F0E799686400F5
:100C8000012202FA04F021EA0001996099681444F3
:100C9000A2400A439A60E2E799686400012202FADE
:100CA00004F00143996099681444A2400A439A6091
:100CB000D5E799686400012202FA04F021EA0001F4
:100CC00099609968144402FA04F421EA04049C60CF
:100CD000C5E738B50C461546FFF718FF30B3034695
:100CE0000F2C23D8012D22D08DB1022D2ED0C1681A
:100CF0006400012202FA04F021EA0001D960D968F7
:100D0000144402FA04F421EA0404DC600EE0C16831
:100D10006400012202FA04F021EA0001D960D968D6
:100D2000144402FA04F421EA0404DC6038BDC1680A
:100D30006400012202FA04F00143D960D968144426
:100D400002FA04F421EA0404DC60EFE7C1686400FD
:100D5000012202FA04F021EA0001D960D9681444A2
:100D600002FA04F40C43DC60E0E738B50C461546A3
:100D7000FFF7CCFE002846D002460F2C43D8072CA4
:100D80008CBF0123002315D8A100C9B20F2D3AD87A
:100D9000DFE815F015003A005E008200A500C900EA
:100DA000EC000F013101550178019B01BD01E0010B
:100DB00002022402A4F108018900C9B2E6E708335F
:100DC00052F82340012000FA01F524EA050442F814
:100DD000234052F823400D1800FA05F524EA0504D3
:100DE00042F8234052F823408D1C00FA05F524EA0E
:100DF000050442F8234052F823400331884024EA96
:100E0000000042F8230038BD083352F82340012087
:100E100000FA01F52C4342F8234052F823400D1804
:100E200000FA05F524EA050442F8234052F823406D
:100E30008D1C00FA05F524EA050442F8234052F817
:100E400023400331884024EA000042F82300DAE717
:100E5000083352F82340012000FA01F524EA050482
:100E600042F8234052F823400D1800FA05F52C43B0
:100E700042F8234052F823408D1C00FA05F524EA7D
:100E8000050442F8234052F823400331884024EA05
:100E9000000042F82300B6E7083352F8234001204F
:100EA00000FA01F52C4342F8234052F823400D1874
:100EB00000FA05F52C4342F8234052F823408D1CDC
:100EC00000FA05F524EA050442F8234052F82340CD
:100ED0000331884024EA000042F8230093E70833F6
:100EE00052F82340012000FA01F524EA050442F8F3
:100EF000234052F823400D1800FA05F524EA0504B2
:100F000042F8234052F823408D1C00FA05F52C438B
:100F100042F8234052F823400331884024EA00007D
:100F200042F823006FE7083352F82340012000FA0B
:100F300001F52C4342F8234052F823400D1800FAE3
:100F400005F524EA050442F8234052F823408D1C9D
:100F500000FA05F52C4342F8234052F823400331B0
:100F6000884024EA000042F823004CE7083352F896
:100F70002340012000FA01F524EA050442F8234049
:100F800052F823400D1800FA05F52C4342F823408F
:100F900052F823408D1C00FA05F52C4342F82340FB
:100FA00052F823400331884024EA000042F823002D
:100FB00029E7083352F82340012000FA01F52C43B9
:100FC00042F8234052F823400D1800FA05F52C434F
:100FD00042F8234052F823408D1C00FA05F52C43BB
:100FE00042F8234052F823400331884024EA0000AD
:100FF00042F8230007E7083352F82340012000FAA3
:1010000001F524EA050442F8234052F823400D1864
:1010100000FA05F524EA050442F8234052F823407B
:101020008D1C00FA05F524EA050442F8234052F825
:10103000234003318840204342F82300E3E608338D
:1010400052F82340012000FA01F52C4342F82340D6
:1010500052F823400D1800FA05F524EA050442F879
:10106000234052F823408D1C00FA05F524EA0504BC
:1010700042F8234052F8234003318840204342F88D
:101080002300C0E6083352F82340012000FA01F59E
:1010900024EA050442F8234052F823400D1800FAD0
:1010A00005F52C4342F8234052F823408D1C00FAEA
:1010B00005F524EA050442F8234052F823400331A1
:1010C0008840204342F823009DE6083352F823402D
:1010D000012000FA01F52C4342F8234052F8234046
:1010E0000D1800FA05F52C4342F8234052F823402E
:1010F0008D1C00FA05F524EA050442F8234052F855
:10110000234003318840204342F823007BE6083324
:1011100052F82340012000FA01F524EA050442F8C0
:10112000234052F823400D1800FA05F524EA05047F
:1011300042F8234052F823408D1C00FA05F52C4359
:1011400042F8234052F8234003318840204342F8BC
:10115000230058E6083352F82340012000FA01F535
:101160002C4342F8234052F823400D1800FA05F5AD
:1011700024EA050442F8234052F823408D1C00FA6B
:1011800005F52C4342F8234052F8234003318840B0
:10119000204342F8230036E6083352F8234001206A
:1011A00000FA01F524EA050442F8234052F82340EE
:1011B0000D1800FA05F52C4342F8234052F823405D
:1011C0008D1C00FA05F52C4342F8234052F82340C9
:1011D00003318840204342F8230014E6083352F8D4
:1011E0002340012000FA01F52C4342F8234052F835
:1011F00023400D1800FA05F52C4342F8234052F81D
:1012000023408D1C00FA05F52C4342F8234052F888
:101210002340033100FA01F1214342F82310F2E5A3
:1012200038B50C461546FFF771FC50B10F2C08D8A5
:10123000012D07D04269012101FA04F422EA0404D5
:10124000446138BD4269012101FA04F41443446148
:10125000F7E710B50C46FFF759FC30B10F2C06D854
:101260000069E04000F0010010BD0020FCE7002014
:10127000FAE710B50C46FFF749FC20B1416901239C
:10128000A3405940416110BD70B505460C46FFF7BB
:101290003DFC98B194B12678627831462846FFF734
:1012A00057FC6378013BDBB2012B08D92279314628
:1012B0002846FFF70EFD6378022B07D070BDE37858
:1012C000A27831462846FFF79EFCEFE76279314667
:1012D0002846FFF74AFDF1E7431EDBB2032B0CD88B
:1012E000074B185C00FB01F00649A1FB00304009E8
:1012F000642800D96420C0B270470846704700BF18
:10130000905600081F85EB5110B500220E210120D8
:10131000FFF786FF07240BE000220C210120FFF7D6
:101320007FFF01220D211046FFF77AFF013C64B2D6
:10133000002C10DB00220D210120FFF771FF094B6B
:101340001B78234113F0010FE6D001220C21104637
:10135000FFF766FFE5E701220E211046FFF760FF69
:1013600010BD00BF5C010020F0B583B00026CDF8B1
:10137000026001248DF8014002238DF8033002AD94
:101380000C2305F8083D29462046FFF77DFF0D2375
:101390008DF8003029462046FFF776FF0E238DF8A2
:1013A000003029462046FFF76FFF0F278DF80070A9
:1013B00029462046FFF768FF324639462046FFF7A8
:1013C0002FFF034B1E70FFF79FFF03B0F0BD00BF60
:1013D0005C01002070B504461546431E032B53D80C
:1013E000DFE803F0020B05080320022307E00720D3
:1013F000052304E00620002301E004200123012945
:1014000012D002291CD0032927D0FFF77DFF25B178
:1014100029462046FFF760FF0546013C032C33D8E0
:10142000DFE804F02C333A4101FA03F3214E32781D
:1014300013435BB201FA00F023EA00033370E4E7E0
:10144000012101FA03F31B4E327822EA03035BB257
:1014500001FA00F003433370D7E7012101FA03F3E7
:10146000144D2A7822EA03035BB201FA00F023EA62
:1014700000002870FFF748FF0025CEE72A4601212B
:101480004FF0804000F068FD70BD2A4602214FF009
:10149000804000F061FDF7E72A4603214FF08040CD
:1014A00000F05AFDF0E72A4604214FF0804000F09A
:1014B00053FDE9E75C01002010B504460246012116
:1014C0000846FFF787FF224601210220FFF782FF2F
:1014D000224601210320FFF77DFF2246012104203F
:1014E000FFF778FF10BD10B5044602460221012027
:1014F000FFF770FF224602210846FFF76BFF2246E6
:1015000002210320FFF766FF224602210420FFF795
:1015100061FF10BD10B50446024601210846FFF7E1
:1015200059FF224601210220FFF754FF22460221E3
:101530000320FFF74FFF224602210420FFF74AFF56
:1015400010BD10B50446024602210120FFF742FFFC
:10155000224602210846FFF73DFF224601210320D3
:10156000FFF738FF224601210420FFF733FF10BDAB
:1015700008B5002203210120FFF72CFF00220321E0
:101580000220FFF727FF002203210846FFF722FF72
:10159000002203210420FFF71DFF08BD094A13683C
:1015A00043F001031360074B1B6813F0020FFAD0DE
:1015B000044B9A6822F001029A609A6822F00202B3
:1015C0009A60704700380240032822D8DFE800F014
:1015D000020A121A0F48036B012202FA01F11943A1
:1015E000016370470B48436B012202FA01F1194372
:1015F000416370470748036C012202FA01F1194365
:10160000016470470348436C012202FA01F1194357
:101610004164704700380240EF2808D8420900F0C2
:101620001F00012303FA00F0014B43F8220070472A
:1016300000E100E0EF2807D80901C9B200F16040DD
:1016400000F5614080F8001370470000014B012253
:101650001A7070470002002038B5002408E098474F
:10166000114B03EB05156B68013BAB600134E4B231
:10167000092C17D825460C4B03EB04131B7B012BBD
:10168000F4D1094B03EB04139B682BB92301064AE1
:10169000D358002BE3D1E3E7034A02EB0415013BE7
:1016A000AB60E3E738BD00BF6001002009280BD81C
:1016B00052B130B4054D00012C182A506160A3606E
:1016C0000123237330BC7047704700BF60010020C6
:1016D00008B500F0ADFB03494FF47A5000F0C2FBAF
:1016E00008BD00BF4D16000808B5054B1B7803B9AF
:1016F00008BD034B00221A70FFF7AEFFF8E700BFEA
:101700000002002070B582B001210020FFF75CFFCD
:1017100002210846FFF758FF0025CDF802500224A9
:101720008DF801408DF80340062602A901F8086DE6
:101730000120FFF7A9FD224631460120FFF715FBE6
:101740000F4B0F229A6244F61F62DA629D619A691A
:1017500042F060029A619A6942F008029A611A6A3C
:1017600042F001021A6240F2DC525A635A6942F0B6
:1017700001025A611A6842F001021A6002B070BD9B
:1017800000080040B42800D9B4204FF47A7303FB5A
:1017900000F39B080648A0FB03239B0803F57A731C
:1017A000044A5363536943F001035361704700BF18
:1017B000176CC11600080040004870470030014017
:1017C00010B50446FFF7F8FF036823F040030360F9
:1017D000012C10D0036823F004030360036823F492
:1017E00080730360036823F400730360036843F0AD
:1017F0004003036010BD036843F004030360036803
:1018000043F480730360F1E72DE9F04182B0FFF704
:10181000D3FF04460025CDF8025002238DF8013095
:101820008DF8033005268DF8056002AF07F8086DC6
:1018300039462846FFF728FD324631462846FFF74D
:1018400094FA4FF006088DF8008039462846FFF7D5
:101850001BFD324641462846FFF787FA4FF007083E
:101860008DF8008039462846FFF70EFD3246414686
:101870002846FFF77AFA2560236843F40073236053
:10188000236843F008032360236843F010032360B8
:10189000236823F0200323600120FFF791FF02B0AB
:1018A000BDE8F08110B50446FFF786FF836813F0AA
:1018B000020FFBD0C460836813F0010FFBD0C06837
:1018C000C0B210BDC0B2A0F13003DBB2092B07D902
:1018D000A0F14103DBB2192B05D83638C0B27047EE
:1018E0002F38C0B270470020704710B5044601225F
:1018F00002211046FFF794FC002204210120FFF78B
:101900008FFC2046FFF7CEFF012204211046FFF78F
:1019100087FC10BD10B50446002202210120FFF70C
:101920007FFC002204210120FFF77AFC2046FFF70C
:10193000B9FF012204211046FFF772FC10BDF8B573
:1019400007460D4616461C462A20FFF7E3FF0020F7
:10195000FFF7CBFFB81CC0B2FFF7C7FF0020FFF7AF
:10196000C4FFB01CC0B2FFF7C0FF2B20FFF7D2FFAF
:101970000020FFF7BAFF681CC0B2FFF7B6FF0020D7
:10198000FFF7B3FF601CC0B2FFF7AFFF2C20FFF7DB
:10199000C1FFF8BDF0B583B00027CDF80270012477
:1019A0008DF8014002AD022305F8083D2946204686
:1019B000FFF76AFC03268DF8006029462046FFF7F2
:1019C00063FC04238DF8003029462046FFF75CFCB9
:1019D000FFF71AFF224631462046FFF721FC0A2076
:1019E00000F059FA3A4631462046FFF719FC0A2022
:1019F00000F051FA224631462046FFF711FC9620AE
:101A000000F049FA2046FFF785FF962000F043FAE0
:101A10001120FFF77FFF4FF4FA7000F03CFA3A20F4
:101A2000FFF778FF0520FFF760FF2920FFF772FF1F
:101A3000642000F030FA03B0F0BD10B514460B4638
:101A40000246FFF77CFFC4F30720FFF74EFFE0B22A
:101A5000FFF74BFF10BD7F2803D8002901DB9F292A
:101A600000DD704708B5C9B2C0B2FFF7E6FF08BD98
:101A700038B505469F237F2200210846FFF75FFF08
:101A8000002407E0C5F30720FFF72FFFE8B2FFF7B8
:101A90002CFF0134B4F5A04FF4D338BD2DE9F04F3D
:101AA00083B004460D4690460193101A03F0CAF81D
:101AB0000746A04523D901230093019E701B03F024
:101AC000C1F88246C0F10009AE421CD94FF0010BAB
:101AD000A7EB0A060C9A29462046FFF7AEFF4445BD
:101AE00014D07300994504DCA6EB0A06009A14444E
:101AF000E4B29F42EEDB3E445D44EDB2EAE74FF0D4
:101B0000FF330093D9E74FF0FF3BE1E7019B9D4294
:101B1000E7D103B0BDE8F08F2DE9F04F85B08346E3
:101B20008A46154601934FF000084446A5424FDB14
:101B300005EB0B0304EB0A07DDF804904A4639462F
:101B400002931846FFF787FF04EB0B0305EB0A0629
:101B5000CDF804904A46314603931846FFF77BFFC1
:101B6000ABEB0409019A31464846FFF774FFABEB33
:101B70000506019A39463046FFF76DFFAAEB0407C8
:101B8000019A39463046FFF766FFAAEB0506019A2F
:101B900031464846FFF75FFFDDF804904A4631467C
:101BA0000398FFF758FF4A4639460298FFF753FF5C
:101BB0000134630001339844A8EB05035B00013353
:101BC000002BB3DD013D6B00C3F101039844ADE789
:101BD00005B0BDE8F08F2DE9F047814688461546EF
:101BE0001F46C2F1000A564613E00134AC420FDC36
:101BF00006FB06F304FB043305FB05F29342F4DC19
:101C00003A4606EB080104EB0900FFF724FFECE776
:101C10000136AE4201DC5446E8E7BDE8F08700003B
:101C20002DE9F04F85B082468B4602939DF83C50DB
:101C30001046FFF747FE03900023019328E0DDF8EC
:101C400038801FE005FB09A005FB07B1424621448F
:101C50003044FFF700FF0134E4B2AC42F2D3013666
:101C6000F6B2AE4201D20024F7E7009B5B08009376
:101C70000137FFB2062F07D8009B13F0010FDED00B
:101C8000DDF808800026ECE7019B0133DBB201930D
:101C9000019B042B0AD801998946039B03EB83021D
:101CA000044B13445B5C00930027E3E705B0BDE8F9
:101CB000F08F00BF985600082DE9F04383B08146AD
:101CC000884614461F460A9E9DF82C500EE001954A
:101CD00000963B4641464846FFF7A2FF05EB450309
:101CE0005800C0B248445FFA80F9013494F90020EA
:101CF000002AECD103B0BDE8F08330B583B00023F7
:101D0000CDF8023001258DF8015002AC082304F80B
:101D1000083D21462846FFF7B7FA09238DF8003021
:101D200021462846FFF7B0FA0A238DF800302146F5
:101D30002846FFF7A9FA03B030BD08B500220A21F2
:101D40000120FFF76DFA01220A211046FFF768FA19
:101D500008BD38B50546072413E045FA04F202F041
:101D6000010208210120FFF75BFA0022092101206E
:101D7000FFF756FA012209211046FFF751FA013CFC
:101D800064B2002CE9DA38BD38B50D460B4C237827
:101D9000C05CFFF7DEFF237801209840C043C0B24B
:101DA000FFF7D7FFFFF7C9FF23780133DBB22370BA
:101DB000AB4201D30022227038BD00BF09020020CF
:101DC00008B50B4B18600B4B19700B4B43F67F6239
:101DD0009A620121D962DA680A43DA601A680A4312
:101DE0001A601920FFF726FC1920FFF715FC08BD23
:101DF00004020020080200200000014008B5094B41
:101E00001B6913F0010F0BD0064A136923F001037D
:101E10001361054B186818B1044B1978FFF7B4FF2C
:101E200008BD00BF0000014004020020080200209D
:101E3000014B00221A60704710E000E0084B586028
:101E400000229A6001221A60054B1B6813F4803F40
:101E5000FAD0034B00221A605A609A60704700BFA4
:101E600010E000E051B1064A1160064B01221A70E1
:101E7000054B586000229A6003221A60704700BF29
:101E80000C0200201000002010E000E008B5400027
:101E9000FFF7D4FF08BD38B50546002404E04FF431
:101EA0007A70FFF7F3FF0134AC42F8D338BD00007D
:101EB00008B5074B1B7823B9064B00221A605A60FD
:101EC0009A60054B1B6803B19847024B1B6808BD1D
:101ED0001000002010E000E00C0200200F238362BD
:101EE00040F2E733C36200228261836943F06003FA
:101EF0008361836943F4C0438361836943F00803CA
:101F00008361836943F400638361C261C36943F001
:101F10006003C361C36943F4C043C361C36943F051
:101F20000803C361C36943F40063C361036A43F0F8
:101F300001030362036A43F010030362036A43F47C
:101F400080730362036A43F480530362036843F0BF
:101F50000103036070470000642A00D96422C36A49
:101F600003FB02F2094BA3FB023252090139032998
:101F70000AD8DFE801F00204060842637047826372
:101F80007047C26370470264704700BF1F85EB5102
:101F9000014B586A704700BF0004004038B5054641
:101FA000FFF7F6FF0446FFF7F3FF001BA842FAD342
:101FB00038BD000070B584B000240294ADF80C4028
:101FC00001258DF8095002268DF80B6002A92846DC
:101FD000FFF75AF90094ADF804408DF803608DF8CE
:101FE000005069462846FFF74FF9064B0F229A62C8
:101FF0004FF6FF72DA625C621A682A431A6004B014
:1020000070BD00BF0004004010B501220021104641
:10201000FFF706F90A20FFF7C1FF00221146012051
:10202000FFF7FEF8FFF7B4FF044601210846FFF76B
:1020300010F940B9FFF7ACFF001B47F2305398424C
:10204000F3D9002010BDFFF7A3FF04460121084685
:10205000FFF7FFF8012808D1FFF79AFF001B49F2AC
:1020600070439842F2D90020ECE7FFF791FF001B84
:10207000024CA4FB00304009E4E700BF09CB3D8DD2
:10208000012808D018B1022803D000207047034867
:102090007047034870470348704700BF0010014075
:1020A0000014014000440040F0B583B00546FFF73E
:1020B000E7FF50B1044600230093ADF8043002233B
:1020C0008DF801308DF803300DB103B0F0BD072657
:1020D0008DF80560092702AD05F8087D2946002026
:1020E000FFF7D2F8324639460020FEF73EFE0A27B7
:1020F0008DF8007029460020FFF7C6F832463946B1
:102100000020FEF732FE0023E360236140F2836388
:10211000A360E36843F00803E360E36843F004036B
:10212000E360E36843F40053E360CEE710B50C4688
:10213000FFF7A6FF036813F0800FFBD0446010BDCB
:1021400008B5FFF79DFF036813F0200FFBD0406830
:10215000C0B208BD38B505460C4603E02846FFF777
:10216000E5FF013421780029F8D10A212846FFF73C
:10217000DDFF38BD08B5FFF783FF0068C0F34010EE
:1021800008BD08B5FEF732FB08BD000070B5FEF7CC
:10219000D7FA0446B0B9C84B1B78012B00F0728106
:1021A000002C00F08881C54B1B78002B00F0838148
:1021B000013B032B00F27F81DFE813F07901A001DE
:1021C000A501AA01FEF7B7FA0546462815D06628EC
:1021D00013D04D2801D06D281ED1B74B01221A70A3
:1021E000FFF7C6F90023B54A1370B54A1370FEF71E
:1021F000EFFAB448FEF799FA0EE0AF4B02221A70DC
:10220000FFF7B6F90023AD4A1370AD4A1370FEF71D
:10221000B5FAAD48FEF789FAA74B1E78012E01D01A
:102220000024B8E7A5F13003DBB2092B00F2B0803F
:10223000302D00F0AB8005EB850253002033DBB27C
:10224000A24A1370A248FEF770FA34462B3D4C2D7B
:10225000A1D801A353F825F05524000897210008C0
:102260006D24000897210008972100089721000895
:10227000972100089721000897210008972100085E
:10228000972100089721000897210008972100084E
:10229000972100089721000897210008972100083E
:1022A000972100089721000897210008972100082E
:1022B000D12300089721000897210008ED2300088A
:1022C000232400089721000897210008972100087F
:1022D00097210008972100089721000897210008FE
:1022E0009721000897210008972100083F24000843
:1022F0000724000897210008B1230008972100084F
:1023000097210008972100089523000897210008CD
:1023100097210008972100089721000897210008BD
:1023200097210008972100089721000897210008AD
:10233000D12300089721000897210008ED23000809
:1023400023240008972100089721000897210008FE
:10235000972100089721000897210008972100087D
:102360009721000897210008972100083F240008C2
:102370000724000897210008B123000897210008CE
:10238000972100089721000895230008642357E748
:1023900000245BE74D4B1878FFF78EF8474B01227E
:1023A0001A70474B14221A704A48FEF7BEF9F2E63B
:1023B000464B1878FFF797F8404B02221A70404BB3
:1023C00014221A70FEF7E8F94348FEF7AEF9E2E688
:1023D0003E4B1878FFF7B5F8384B03221A70384B8C
:1023E00004221A703D48FEF7A0F9D4E6374B18785E
:1023F000FFF790F80423314A1370314A13703848BC
:10240000FEF793F9C7E6314B1878FFF79AF82B4B94
:1024100003221A702A4B00221A703248FEF785F9FF
:10242000B9E62A4B1878FFF775F8244B04221A7086
:10243000234B00221A702C48FEF777F9ABE6FFF722
:1024400097F800231D4A13701D4A13702748FEF7A2
:102450006CF9A0E61D4B1B785A2B03D80A331B4A94
:10246000137034462248FEF760F994E6174B1B7848
:10247000092B03D90A3B154A137034461D48FEF751
:1024800054F988E60E4B1B78002B3FF489AE013BD4
:10249000DBB20B4A1370002B7FF482AEFFF768F8B3
:1024A000064B00221A701448FEF73FF978E6074BF6
:1024B0001878FFF701F870BD1800002018020020FE
:1024C000100200206C570008545700081A00002022
:1024D00084570008A0570008C0570008E4570008B8
:1024E0000458000824580008445800086858000898
:1024F000785800088C580008A0580008074B187836
:10250000FEF7F1FFD7E7054B1878FFF71AF8D2E787
:10251000024B1878FEF7FEFFCDE700BF1A0000203F
:1025200008B5FFF771FD224B186010B94FF4C8725F
:102530001A60204B1B78022B00D008BD1E4B1B7865
:10254000A3B91B4B1B681D2B14D91F3B772B29D814
:102550001A4B1B78642B15D84F2B1BD8184B1878A7
:10256000FEF7D8FF174B04221A70E6E7013B124A28
:102570001370E2E7FEF7FCFF124B00221A70FEF721
:1025800019F9DAE70E4B1878FEF7DBFF0D4B032243
:102590001A70D2E70A4B1878FEF78EFF094B01221A
:1025A0001A70CAE7FEF7E4FF064B00221A70C4E770
:1025B0001400002018000020250200201C0000202C
:1025C0001A0000201802002008B5094B1A78094BA0
:1025D00018781044C0B21870A0F11F03DBB2762B3C
:1025E00002D95242024B1A70FFF7CCF808BD00BF67
:1025F0001B0000201C00002070B582B00020FFF7F7
:1026000037FA4FF4FC6323229F214020FFF784FA1E
:102610004FF4FC6346229F214020FFF77DFA4FF4E0
:10262000FC6369229F214020FFF776FA4FF4FC6398
:102630008C229F214020FFF76FFA4FF4FC64009436
:102640009F237F2219460020FFF728FA00940023D9
:1026500040229F211046FFF721FA009414231A46C6
:102660009F214020FFF71AFA009414236C229F2127
:102670004020FFF713FA0125019500260096234616
:102680000B4A78212846FFF717FB01950096234651
:10269000084A55212846FFF70FFB0195009623466F
:1026A000054A32212846FFF707FB02B070BD00BF84
:1026B00084590008885900088C5900082DE9F04316
:1026C00085B06B4B93F90030002B04DD694A92F919
:1026D0000020002A45DD002B3EDB654B1A78654B58
:1026E0001A70654B187802F009F9644902F05AF93A
:1026F0000446634B1868642828BF642002F0FAF887
:10270000604902F04FF901F025FD06460F462046CC
:1027100001F020FD8046894600F0FEF902460B4696
:102720003046394601F06EFD02F006F8C0F1400572
:102730004046494600F03AFA02460B4630463946D2
:1027400001F060FD01F0F8FFC0F19F04002D0EDBE9
:102750007F2D0DDD7F250BE0464B93F90030002BDC
:10276000BBDBFFF749FF484B00221A70B5E7002595
:10277000002C03DB9F2C02DD9F2400E000244FF49B
:10278000FC630093E3B2EAB29F214020FFF786F991
:102790003D4B1B783BB93A4B1B68013B632B0ED971
:1027A00005B0BDE8F08300230222384909683848A3
:1027B0000068FFF710FA344B00221A70EBE74FF471
:1027C000FC63022221462846FFF705FA304B1D60C4
:1027D0002E4B1C602C4B01221A70294B1A68632A5D
:1027E00042D92C49A1FB023149092B4BA3FB010320
:1027F000DB0803EB830358000B1A30335BB28DF810
:102800000830092A32D9244BA3FB0201C908A3FBD3
:102810000103DB0803EB830358000B1A30335BB270
:102820008DF809301C4BA3FB0213DB0803EB830379
:102830005900531A30338DF80A3043238DF80B308A
:102840004D238DF80C3020238DF80D3000238DF8AA
:102850000E300122019200934FF4FC6302AA022180
:102860000846FFF729FA9BE72023C8E72023D7E78C
:102870001B000020190000201C0000202EFA8E3CB6
:10288000140000203333B33F240200202002002034
:102890001C0200201F85EB51CDCCCCCC30B40023E2
:1028A000264A1360264A136008E024490A68541C2B
:1028B0000C60244900248C540133DBB2072BF4D97B
:1028C0001DE00021002310E00121FBE70021F9E7D2
:1028D0001A4A1468651C156001EB81051A4A2A44DE
:1028E000D55C184A15550133DBB2042BF0D9134AD5
:1028F0001368591C1160134A0021D154013090F91A
:10290000001061B12029DCD02129DDD0C9B2A1F1AC
:102910004103DBB2192BD9D83F39C9B2D2E7002322
:1029200008E006490A68501C0860064900208854DF
:102930000133DBB2072BF4D930BC704728020020EA
:102940001402002044020020F858000808B5284B63
:102950001B78284A127893420DD0042B07D8DFE861
:1029600003F018030C1014002348FFF797FF204BC7
:102970001A78204B1A70002314E02048FFF78EFFCE
:10298000F5E71F48FFF78AFFF1E71E48FFF786FFCC
:10299000EDE71D48FFF782FFE9E71C4A0021D1540B
:1029A0000133DBB2072B0BD8194A12681A441949B4
:1029B00009688A42F1D21849895C144AD154EFE778
:1029C000164A13780133DBB21370012B0ED913466C
:1029D00000221A700E4A1368013313600D4A126800
:1029E000083A934202D30A4B00221A6008BD00BF86
:1029F000180200201D000020B8580008C058000828
:102A0000CC580008D4580008DC5800083C020020CC
:102A10001402002028020020440200202C02002082
:102A200008B5FEF7BBFD00210846FEF7CDFD0121EC
:102A30000020FEF7C9FD00210220FEF7C5FD02219E
:102A40000846FEF7C1FD01210220FEF7BDFD04216D
:102A50000320FEF7B9FD0C210320FEF7B5FD002190
:102A60000320FEF7B1FDFDF770FEFDF759FEFEF7FE
:102A70007BFC4FF08040FFF731FAFFF79BFAFEF73F
:102A800041FE5A20FEF77EFEFFF737F908211A486B
:102A9000FFF796F9FEF77EFFFFF7AEFD1748FDF74B
:102AA00044FEFDF76BFE0023154A1E211846FEF773
:102AB000FDFD0523134A32210120FEF7F7FD0A230D
:102AC000114A19460220FEF7F1FD0F230F4A962105
:102AD0000320FEF7EBFD14230D4A32210420FEF7FC
:102AE000E5FD19230B4A64210520FEF7DFFDFEF703
:102AF000EFFDFEF7F9FDFCE73C02002090590008CD
:102B0000832100088D2100084D2900082125000897
:102B1000C9250008BD26000830B5224A21F000432F
:102B2000934287B01BDD204A934205DD02460B46E7
:102B300001F0B0F907B030BD02AA00F07DF800F056
:102B40000303012B11D0022B22D0D3B10124DDE9E4
:102B50000423DDE90201009400F0D2FFEAE700223D
:102B6000002300F089FA07B030BDDDE90445009389
:102B7000DDE9020122462B4600F0C2FF01F10041CF
:102B8000D8E7DDE90423DDE9020100F075FAD1E7B9
:102B9000DDE90423DDE9020100F06EFA01F10041F4
:102BA000C8E700BFFB21E93FFFFFEF7F30B51F4AB9
:102BB00021F00043934287B01BDD1D4A934205DD9F
:102BC00002460B4601F066F907B030BD02AA00F0DC
:102BD00033F800F003000128DDE9042311D00228B6
:102BE0001BD098B1DDE9020100F046FA01F1004185
:102BF000EAE7002300930022002300F081FF07B0E2
:102C000030BDDDE9020100F037FADDE70124DDE93E
:102C10000201009400F074FFD6E70124DDE902010F
:102C2000009400F06DFF01F10041CDE7FB21E93F89
:102C3000FFFFEF7F000000002DE9F04FC84E21F0AC
:102C40000047B7428FB00B4640F38F809246C54A8B
:102C500097420C4626DC0029B7A3D3E9002340F3B2
:102C60008F8001F017F9C04B9F4204460D4600F0DB
:102C70004681B3A3D3E9002301F00CF902460B46C9
:102C8000CAE900232046294601F004F9ACA3D3E9A0
:102C9000002301F0FFF80125CAE9020128460FB020
:102CA000BDE8F08FB14A974240F38980B04A97421D
:102CB00000F31C813D15A5F21645A7EB05531946F7
:102CC0001F46064601F038FD01F032FA804689467B
:102CD00002460B4630463946CDE9088901F0DAF85C
:102CE0000022A44B01F08EFA8946804601F024FDB3
:102CF00001F01EFA02460B4606460F46404649467C
:102D0000CDE90A6701F0C6F800229A4B01F07AFA81
:102D100000220023CDE90C0101F0DCFC002800F0CA
:102D20005D81002330463946002201F0D3FC0028A3
:102D300014BF01230223904A019202212A460091E6
:102D400008A8514600F0BCFA002C054614DADAF85F
:102D50000420DAF80C3002F1004203F1004345424E
:102D6000CAF80420CAF80C3006E0C2E900010025C8
:102D70000024C2E90245002528460FB0BDE8F08FC7
:102D800001F08AF8784B9F4204460D4600F0088116
:102D90006BA3D3E9002301F07FF802460B46CAE992
:102DA00000232946204601F075F865A3D3E90023E6
:102DB00001F072F84FF0FF35CAE90201DCE700F0DC
:102DC00055FF61A3D3E900238046894601F01AFA32
:102DD00000226A4B01F060F801F0AEFC054601F0FC
:102DE000A7F955A3D3E90023CDE9040101F00AFABC
:102DF00002460B464046494601F04CF850A3D3E941
:102E00000023CDE90201DDE9040101F0FBF91F2DEA
:102E10008046894602460B46DDE9020140F3B08058
:102E200001F038F883460E463F15C6F30A53FB1AE5
:102E3000102B40F3B08046A3D3E90023DDE9040161
:102E400001F0E0F98046894602460B46DDE90201C1
:102E500001F020F802460B46DDE90201CDE9062328
:102E600001F018F842464B4601F014F83AA3D3E9B2
:102E7000002380468946DDE9040101F0C3F942469A
:102E80004B4601F007F80B46024680468946DDE9CD
:102E9000060100F0FFFFC1F30A53FF1A312F8346EA
:102EA0000E4600F39D8002460B46CAE90023DDE989
:102EB0000623CDE902235A463346DDE9020100F03C
:102EC000E9FF42464B4600F0E5FF002C02460B4668
:102ED000CAE90223BFF650AF06F1004601F10041F6
:102EE000CAE900B6CAE902016D4245E7024600F0B0
:102EF000D1FF0025CAE90201CAE900013CE714A399
:102F0000D3E9002300F0C6FF13A3D3E900230D4645
:102F1000044600F0BFFF02460B46CAE900232946DB
:102F2000204600F0B7FF0CA3D3E9002300F0B2FF66
:102F30000125CAE902011FE700004054FB21F93FC7
:102F40003163621A61B4D03D83C8C96D305FE43F1C
:102F50000000601A61B4D03D7370032E8A19A33B40
:102F6000FB21E93F7BD90240FB21F93FFB2139419D
:102F7000FFFFEF7F00007041405A00080000E03F73
:102F800000F088FF3A4B6A1E834653F82230BB425A
:102F90000E463FF449AF5A463346CAE900238AE752
:102FA0002BA3D3E9002300F077FF2BA3D3E9002361
:102FB0000D46044600F070FF02460B46CAE90023A6
:102FC0002946204600F066FF23A3D3E9002300F042
:102FD00063FF4FF0FF35CAE90201CDE60323AAE6FD
:102FE0001FA3D3E90023DDE9040101F00BF9DDE9BA
:102FF000068906460F4602460B464046494600F003
:1030000049FF02460B4640464946CDE9022300F0FF
:1030100041FF32463B4600F03DFF13A3D3E90023B6
:1030200006460F46DDE9040101F0ECF832463B4666
:1030300000F030FF02460B4680468946DDE902017A
:1030400000F028FF83460E46A5E700BFAFF30080DF
:103050000000601A61B4D03D7370032E8A19A33B3F
:103060000000002E8A19A33BC14920259A837B3991
:10307000C0590008000000002DE9F04F21F0004683
:10308000B6F1795F85B00C4692469B4605466BDAF1
:1030900001F052FB002800F0E2802A462346284631
:1030A000214601F0AFF874A3D3E900238046894696
:1030B00001F0A8F872A3D3E9002300F0EDFE424628
:1030C0004B4601F09FF870A3D3E9002300F0E2FE25
:1030D00042464B4601F096F86DA3D3E9002300F079
:1030E000DBFE42464B4601F08DF86BA3D3E900238B
:1030F00000F0D0FE42464B4601F084F868A3D3E9C5
:10310000002300F0C9FE42464B4601F07BF8CDE9B2
:1031100000010022644B4046494601F073F8DDE9A6
:10312000002306460F464046494601F06BF85246DA
:10313000804689465B462846214601F063F80246F0
:103140000B464046494600F0A5FE02460B46304677
:10315000394600F09FFE02460B460020534900F01E
:1031600099FE05B0BDE8F08F02460B4601F04AF823
:1031700041A3D3E900238046894601F043F840A3E8
:10318000D3E9002300F088FE42464B4601F03AF8AE
:103190003DA3D3E9002300F07DFE42464B4601F0FB
:1031A00031F83BA3D3E9002300F076FE42464B46BC
:1031B00001F028F838A3D3E9002300F06BFE424663
:1031C0004B4601F01FF836A3D3E9002300F064FE5C
:1031D0004B46424601F016F8354B9E42CDE90001C0
:1031E00097DD344B9E424FF000023DDCA6F5001304
:1031F00000202E4916461F4600F04CFECDE9020184
:103200000022294B4046494600F0FCFF32463B462F
:1032100000F040FEDDE9002306460F4640464946E1
:1032200000F0F0FF5246804689465B46284621461C
:1032300000F0E8FF02460B464046494600F02AFEF1
:1032400002460B463046394600F024FE02460B4645
:10325000DDE9020100F01EFE05B0BDE8F08F134964
:10326000002005B0BDE8F08F134B144FCDE90223C9
:103270000026C5E7AFF30080D43888BEE9FAA8BDC0
:10328000C4B1B4BD9EEE213EAD529C804F7E923EB5
:103290009015CB19A001FA3E7751C1166CC1563F6B
:1032A0004C5555555555A53F0000E03F0000F03FF7
:1032B0003233D33F0000E93F0000E73F0000D23F38
:1032C0002DE9F04FADF5197DBE4CA29EBE4D54F8D0
:1032D00026700793D41E85FB0465E417C4EBA50490
:1032E00024EAE4741D46631CA3EB8303013D02EB57
:1032F000C30305937B1909940497019506460B9126
:10330000A4EB05041BD423445D1C20AF4FF0000840
:103310004FF00009DDF88CA208E05AF8240000F014
:1033200007FF0134AC42E7E8020108D0002CF4DAD0
:10333000013440464946AC42E7E80201F6D1049B1D
:10334000002BC0F2B083079BA6F10802DB001146F8
:10335000039220AA02EB0309029301EB0308049BEA
:1033600072AA02EBC30B0DF5E07A019B002BC0F2B1
:103370009581039C4D460026002775E90223F4E958
:10338000020100F03FFF02460B463046394600F08E
:1033900083FD444506460F46EFD1EAE80267DA4569
:1033A00009F10809E1D1DDE90204049920448B0008
:1033B00082460BA8A3F10802C31808930CAB134470
:1033C0000A938B4698AB03EBCB03BBF1000F53E999
:1033D000284529DD70AB03EBCB080DF13009002245
:1033E0007A4B2046294600F00DFF01F0A5F900F0C8
:1033F0009FFE0022764B06460F4600F003FF024672
:103400000B462046294600F045FD01F095F978E984
:10341000022349F8040B3946304600F03DFD70ABFD
:10342000984504460D46DAD1DDF814902046294629
:103430004A4600F0A5FC00224FF07F5304460D469B
:1034400000F0E0FE00F018FC0022624B00F0DAFE13
:1034500002460B462046294600F01CFD0D46044658
:1034600001F06AF9804600F063FE0B4602462946E9
:10347000204600F00FFD4B46002B06460F4640F35A
:10348000E1800BF1FF320CA9C9F1180351F8225069
:1034900045FA03F101FA03F30CA8EB1A40F82230C5
:1034A000C9F11705884443FA05F5002D2CDDBBF161
:1034B000000F08F1010840F394820C9C002C40F0AE
:1034C000A780BBF1010F0AD00CA9012251F8044FCB
:1034D000531C002C40F09E809B451A46F6D1059B5C
:1034E000002B0EDD012B00F09C81022B09D10BF18A
:1034F000FF320CAB0CA953F82230C3F3150341F88B
:103500002230022D00F0AF800022002330463946E1
:1035100001F0E0F8002800F06682049B0BF1FF390F
:103520004B4510DC0BF180430CAA013B089802EBE1
:103530008303002253F80419834242EA0102F9D1BD
:10354000002A40F0B580049B0CAA013B52F82330BE
:10355000002B40F0A1800A9A012352F8041901338C
:103560000029FAD05B440BF101099945069349DC27
:10357000099A079909EB020801EB0B0508F180484D
:1035800002EB030BA39B08F1FF3803EB880870AB39
:1035900003EBC909A39B20A903EB8B0301EBC50532
:1035A000029358F8040F00F0C3FD019B002BC5E9FE
:1035B000000105F1080B28DB083D039C00260027CD
:1035C0000CE000BF885B0008ABAAAA2A0000703E8E
:1035D000000070410000204075E80201F4E9022378
:1035E00000F010FE02460B463046394600F054FC0F
:1035F000544506460F46EFD1029B9845E9E802671D
:103600005D46CED1DDF818B0DCE600260027F3E7F2
:10361000012300220CA9C4F180749B4541F822408B
:103620000EDD51F8232001EB8B0001EB83036FF0DB
:103630007F4100E01A688A1A43F8042B8342F9D1CB
:1036400001244CE706D10BF1FF330CAA52F82350AA
:10365000ED152AE70022BE4B01F05AF8002840F091
:10366000B981054650E732463B460020B94900F093
:1036700011FC06460F46002C3FF446AF059AB549AB
:10368000002000F07DFB02460B463046394600F034
:1036900001FC06460F4637E7012363E700260027B3
:1036A000EAE80267DA4509F108097FF45EAE7AE6D6
:1036B0000CAB059A53F82930183ACDE906850592E6
:1036C0006BB909F18043013B0CA901EB830353F86B
:1036D000041909F1FF39183A0029F8D00592059A22
:1036E0009C49002000F04CFBB9F1000F04460D4648
:1036F000C0F2E0814FEAC90370AA02EB0308089305
:103700000CAB03EB8906DFF850B208F1080704366A
:103710004FF0000A56F8040D00F00AFD22462B4631
:1037200000F070FD5B4667E90201524620462946DB
:1037300000F068FD0CAB9E4204460D46EAD148AB52
:1037400003930193CDF8149009F10103DDF8109073
:103750000293C3464FF0000AB9F1000FC0F237815F
:10376000DFF8F8815D4678A3D3E90023002600271F
:10377000002403E0544510DCF8E80223F5E80201D8
:1037800000F040FD02460B463046394600F084FB0F
:103790000134A14506460F46ECDA019BE3E80267D7
:1037A0000193029B0AF1010A9A45ABF1080BD3D1B0
:1037B000A29BDDF81490032B2CD8DFE813F0E8006F
:1037C000D300D3003F00079B00200146002B40F0B0
:1037D00043810D460B460B990446C1E90045039908
:1037E0000246D1E9000100F055FBB9F1000F0CDDF4
:1037F000039D0124F5E90223013400F04DFBA145AE
:10380000F8DA079B002B40F037810B460B990246F4
:10381000C1E90223069B03F007000DF5197DBDE801
:10382000F08F0BF1FF320CAB0CA953F82230C3F32D
:10383000160341F8223064E648AB0393B9F1000F58
:1038400040F35581039ACDF808904FEAC90302EB83
:103850000308D8E900AB0193914658E90267524644
:103860005B463046394600F017FB04460D460246DB
:103870000B463046394600F00DFB52465B4600F0E1
:103880000BFBC8E9000168E90245C145A246AB4609
:10389000E3D1DDF80890B9F1010F40F32881019BD5
:1038A000039A1344D3E9006701939A460DF5947B7C
:1038B0005AE9028932463B464046494600F0ECFA56
:1038C00004460D4602460B464046494600F0E2FAE1
:1038D00032463B4600F0E0FACAE900016AE90245D7
:1038E000D34526462F46E3D10399019C002301F1DD
:1038F0001005083419461E46304674E9022300F0CC
:10390000CBFAA5420346F6D10A460399D1E9008CC9
:10391000D1E902E90799002900F0B1800B9C2361ED
:10392000069BC4F800800CF1004009F1004102F14F
:103930000042606003F00700E1606261C4F808E0E3
:103940000DF5197DBDE8F08F00000040FB21F93F27
:103950000000E03F0000F03F0000703E505B0008B8
:1039600048AB0393B9F1000FFFF62DAF039F002082
:1039700007EBC9060836014676E9022300F08CFA07
:10398000B742F9D1079B002B3FF423AF64E0089CBA
:10399000039D083400222C4411461646304674E933
:1039A000022300F079FAA5420246F6D10B460799A8
:1039B00009B103F1004319460B9B1046C3E900010E
:1039C000069B03F007000DF5197DBDE8F08F00267A
:1039D0000027E2E6BBF1000F08F101087DDD0225BA
:1039E0006BE500247BE5CDE90685059D304639462B
:1039F0006A4200F0C5F900223E4B06460F4600F031
:103A000087FE00B300223C4B3046394600F0FAFBFB
:103A100000F092FE044600F08BFB0022354B00F0D4
:103A2000F1FB0B4602463946304600F033FA00F00F
:103A300083FE0BF101090CAB183543F82B000595FB
:103A400043F829404BE63046394600F075FE0CAB92
:103A5000D94643F82B0042E60B9C0B4601F100418E
:103A6000C4E9000103990246D1E9000100F012FA0D
:103A7000B9F1000F3FF7BCAE01F10041C5E61846B1
:103A80000B9B4646744667464D461146C3E9040102
:103A9000C3E90067C3E90245069B03F007000DF583
:103AA000197DBDE8F08FA6F108030393079BDB00A7
:103AB000029378E4A29B032B3FF6ACAE01A252F82E
:103AC00023F000BFD53A00086139000861390008C9
:103AD000393800080022134669E732463B46002089
:103AE000064900F0D7F9022506460F460CE50023EB
:103AF0001A460AE7000070410000703E0000F03FE7
:103B00002DE9F04F21F00046B6F1795F85B00C4603
:103B100090469946054604DA00F00EFE002800F0B3
:103B200085802A4623462846214600F06BFB064640
:103B30000F4602460B462846214600F063FB3EA393
:103B4000D3E9002382468B463046394600F05AFBC3
:103B50003BA3D3E9002300F09DF932463B4600F039
:103B600051FB39A3D3E9002300F096F932463B46D6
:103B700000F048FB36A3D3E9002300F08BF932466E
:103B80003B4600F03FFB34A3D3E9002300F084F967
:103B90000E9BCDE900019BB30022334B40464946C2
:103BA00000F030FBDDE90023CDE902015046594623
:103BB00000F028FB02460B46DDE9020100F06AF93D
:103BC00032463B4600F01EFB42464B4600F062F98F
:103BD00023A3D3E9002306460F465046594600F07A
:103BE00011FB02460B463046394600F055F90246B5
:103BF0000B462846214600F04DF905B0BDE8F08F90
:103C000002460B463046394600F0FCFA14A3D3E9CD
:103C1000002300F03FF952465B4600F0F3FA2A46D3
:103C2000234600F039F905B0BDE8F08F284621465B
:103C300005B0BDE8F08F00BF7CD5CF5A3AD9E53D3D
:103C4000EB9C2B8AE6E55A3E7DFEB157E31DC73E4D
:103C5000D561C119A0012A3FA6F810111111813FA9
:103C6000495555555555C53F0000E03F21F00043EB
:103C70001946704700000000C1F30A522DE9F843CD
:103C8000A2F2FF36132E0B460D4604468846074621
:103C90001DDC002E3DDB384A42FA06F901EA090232
:103CA000024319D032A3D3E9002300F0F5F8002233
:103CB000002300F037FDD0B3002D04DA4FF4801359
:103CC00043FA06F6B04428EA090500272FE0332E10
:103CD00006DDB6F5806F2FD019462046BDE8F88383
:103CE000A2F213424FF0FF3929FA02F919EA000F44
:103CF000F2D01FA3D3E9002300F0CEF80022002366
:103D000000F010FD98B1002D24DB27EA0907454695
:103D10000DE017A3D3E9002300F0BEF80022002332
:103D200000F000FD18B1002D0BDB00273D463C469E
:103D300029462046BDE8F883024600F0ADF8044667
:103D4000CBE725F000430D4A1F43002F18BF15464F
:103D50000027ECE7142E08D00123C6F1340603FA3D
:103D600006F6371928BF9844CFE705F10108CCE7DC
:103D70009C7500883CE4377EFFFF0F000000F0BF19
:103D8000F8B5C1F30A5304460D460E4617460BBB61
:103D900021F00046034633431BD0354B002200F090
:103DA00031FA344B9F4204460D4635DBC1F30A53CA
:103DB0000E46363B3B4440F2FE72934232DC002B0F
:103DC00011DD26F0FF4626F4E00646EA03552046BC
:103DD0002946F8BD40F2FF729342EBD102460B46F2
:103DE00000F05AF8F8BD13F1350F28DA4CF25033D1
:103DF0009F4222462B460ADD19A1D1E9000100F0BD
:103E00003DF817A3D3E9002300F0FCF9F8BD16A193
:103E1000D1E9000100F032F813A3D3E9002300F048
:103E2000F1F9F8BD22462B460DA1D1E9000100F0C1
:103E300025F80BA3D3E9002300F0E4F9F8BD26F040
:103E4000FF4626F4E006363346EA03552046294667
:103E50000022094B00F0D6F9F8BD00BFAFF3008097
:103E60009C7500883CE4377E59F3F8C21F6EA501AB
:103E700000005043B03CFFFF0000903C03F00043C3
:103E800021F0004242EA0301704700BF81F0004187
:103E900002E000BF83F0004330B54FEA41044FEA2F
:103EA000430594EA050F08BF90EA020F1FBF54EACA
:103EB000000C55EA020C7FEA645C7FEA655C00F066
:103EC000E2804FEA5454D4EB5555B8BF6D420CDD37
:103ED0002C4480EA020281EA030382EA000083EABA
:103EE000010180EA020281EA0303362D88BF30BD5A
:103EF00011F0004F4FEA01314FF4801C4CEA1131B0
:103F000002D0404261EB410113F0004F4FEA03330E
:103F10004CEA133302D0524263EB430394EA050F99
:103F200000F0A780A4F10104D5F1200E0DDB02FA08
:103F30000EFC22FA05F2801841F1000103FA0EF29C
:103F4000801843FA05F359410EE0A5F120050EF162
:103F5000200E012A03FA0EFC28BF4CF0020C43FA93
:103F600005F3C01851EBE37101F0004507D54FF0A0
:103F7000000EDCF1000C7EEB00006EEB0101B1F5F0
:103F8000801F1BD3B1F5001F0CD349085FEA300036
:103F90004FEA3C0C04F101044FEA445212F5800F41
:103FA00080F09A80BCF1004F08BF5FEA500C50F1DE
:103FB000000041EB045141EA050130BD5FEA4C0CC1
:103FC000404141EB010111F4801FA4F10104E9D14A
:103FD00091F0000F04BF01460020B1FA81F308BF41
:103FE0002033A3F10B03B3F120020CDA0C3208DD0D
:103FF00002F1140CC2F10C0201FA0CF021FA02F1E8
:104000000CE002F11402D8BFC2F1200C01FA02F157
:1040100020FA0CFCDCBF41EA0C019040E41AA2BF7C
:1040200001EB0451294330BD6FEA04041F3C1CDA44
:104030000C340EDC04F11404C4F1200220FA04F064
:1040400001FA02F340EA030021FA04F345EA03010E
:1040500030BDC4F10C04C4F1200220FA02F001FAD0
:1040600004F340EA0300294630BD21FA04F0294652
:1040700030BD94F0000F83F4801306BF81F48011EB
:104080000134013D4EE77FEA645C18BF7FEA655C5E
:1040900029D094EA050F08BF90EA020F05D054EA30
:1040A000000C04BF1946104630BD91EA030F1EBF35
:1040B0000021002030BD5FEA545C05D14000494139
:1040C00028BF41F0004130BD14F580043CBF01F52C
:1040D000801130BD01F0004545F0FE4141F4700112
:1040E0004FF0000030BD7FEA645C1ABF19461046ED
:1040F0007FEA655C1CBF0B46024650EA013406BFEE
:1041000052EA033591EA030F41F4002130BD00BFAC
:1041100090F0000F04BF0021704730B54FF4806469
:1041200004F132044FF000054FF0000150E700BFEA
:1041300090F0000F04BF0021704730B54FF4806449
:1041400004F1320410F0004548BF40424FF0000136
:104150003EE700BF42004FEAE2014FEA31014FEA79
:1041600002701FBF12F07F4393F07F4F81F06051C8
:10417000704732F07F4208BF704793F07F4F04BF13
:1041800041F40021704730B54FF4607401F00045F0
:1041900021F000411CE700BF50EA010208BF704750
:1041A00030B54FF000050AE050EA010208BF704741
:1041B00030B511F0004502D5404261EB41014FF4AA
:1041C000806404F132045FEA915C3FF4D8AE4FF0B2
:1041D00003025FEADC0C18BF03325FEADC0C18BF95
:1041E000033202EBDC02C2F1200300FA03FC20FAE6
:1041F00002F001FA03FE40EA0E0021FA02F1144433
:10420000BDE600BF70B54FF0FF0C4CF4E06C1CEA4B
:1042100011541DBF1CEA135594EA0C0F95EA0C0FBC
:1042200000F0DEF82C4481EA030621EA4C5123EA2F
:104230004C5350EA013518BF52EA033541F480115E
:1042400043F4801338D0A0FB02CE4FF00005E1FB11
:1042500002E506F00042E0FB03E54FF00006E1FB5B
:1042600003569CF0000F18BF4EF0010EA4F1FF049E
:10427000B6F5007F64F5407404D25FEA4E0E6D41DE
:1042800046EB060642EAC62141EA55514FEAC520EF
:1042900040EA5E504FEACE2EB4F1FD0C88BFBCF56B
:1042A000E06F1ED8BEF1004F08BF5FEA500E50F11C
:1042B000000041EB045170BD06F0004646EA0101E2
:1042C00040EA020081EA0301B4EB5C04C2BFD4EB14
:1042D0000C0541EA045170BD41F480114FF0000E0D
:1042E000013C00F3AB8014F1360FDEBF002001F07B
:1042F000004170BDC4F10004203C35DA0C341BDCF5
:1043000004F11404C4F1200500FA05F320FA04F0C6
:1043100001FA05F240EA020001F0004221F00041FA
:1043200010EBD37021FA04F642EB06015EEA430E6D
:1043300008BF20EAD37070BDC4F10C04C4F120059D
:1043400000FA04F320FA05F001FA04F240EA020050
:1043500001F0004110EBD37041F100015EEA430E21
:1043600008BF20EAD37070BDC4F1200500FA05F241
:104370004EEA020E20FA04F301FA05F243EA0203C0
:1043800021FA04F001F0004121FA04F220EA0200CF
:1043900000EBD3705EEA430E08BF20EAD37070BD15
:1043A00094F0000F0FD101F00046400041EB0101F5
:1043B00011F4801F08BF013CF7D041EA060195F0D7
:1043C000000F18BF704703F00046520043EB030391
:1043D00013F4801F08BF013DF7D043EA060370477E
:1043E00094EA0C0F0CEA135518BF95EA0C0F0CD089
:1043F00050EA410618BF52EA4306D1D181EA0301CF
:1044000001F000414FF0000070BD50EA410606BFC8
:104410001046194652EA430619D094EA0C0F02D10D
:1044200050EA013613D195EA0C0F05D152EA033652
:104430001CBF104619460AD181EA030101F0004170
:1044400041F0FE4141F470014FF0000070BD41F0B9
:10445000FE4141F4780170BD70B54FF0FF0C4CF493
:10446000E06C1CEA11541DBF1CEA135594EA0C0FB2
:1044700095EA0C0F00F0A7F8A4EB050481EA030EFF
:1044800052EA03354FEA013100F088804FEA0333E6
:104490004FF0805545EA131343EA12634FEA0222B4
:1044A00045EA111545EA10654FEA00260EF0004175
:1044B0009D4208BF964244F1FD0404F5407402D2C7
:1044C0005B084FEA3202B61A65EB03055B084FEA58
:1044D00032024FF480104FF4002CB6EB020E75EB55
:1044E000030E22BFB61A754640EA0C005B084FEA7D
:1044F0003202B6EB020E75EB030E22BFB61A7546FA
:1045000040EA5C005B084FEA3202B6EB020E75EB44
:10451000030E22BFB61A754640EA9C005B084FEABC
:104520003202B6EB020E75EB030E22BFB61A7546C9
:1045300040EADC0055EA060E18D04FEA051545EAB8
:1045400016754FEA06164FEAC30343EA52734FEA61
:10455000C2025FEA1C1CC0D111F4801F0BD141EADA
:1045600000014FF000004FF0004CB6E711F4801F3F
:1045700004BF01430020B4F1FD0C88BFBCF5E06F1F
:104580003FF6AFAEB5EB030C04BFB6EB020C5FEA2F
:10459000500C50F1000041EB045170BD0EF0004E84
:1045A0004EEA113114EB5C04C2BFD4EB0C0541EAB6
:1045B000045170BD41F480114FF0000E013C90E6B3
:1045C00045EA060E8DE60CEA135594EA0C0F08BF77
:1045D00095EA0C0F3FF43BAF94EA0C0F0AD150EA76
:1045E00001347FF434AF95EA0C0F7FF425AF104609
:1045F00019462CE795EA0C0F06D152EA03353FF431
:10460000FDAE1046194622E750EA410618BF52EAAD
:1046100043067FF4C5AE50EA41047FF40DAF52EA81
:1046200043057FF4EBAE12E74FF0FF3C06E000BF1E
:104630004FF0010C02E000BF4FF0010C4DF804CD2B
:104640004FEA410C7FEA6C5C4FEA430C18BF7FEAEB
:104650006C5C1BD001B050EA410C0CBF52EA430C19
:1046600091EA030F02BF90EA020F0020704710F199
:10467000000F91EA030F58BF994208BF90422CBF28
:10468000D8176FEAE37040F0010070474FEA410C21
:104690007FEA6C5C02D150EA013C07D14FEA430C3F
:1046A0007FEA6C5CD6D152EA033CD3D05DF8040BB0
:1046B000704700BF8446104662468C4619466346E2
:1046C00000E000BF01B5FFF7B7FF002848BF10F1B9
:1046D000000F01BD4DF808EDFFF7F4FF0CBF0120FE
:1046E00000205DF808FB00BF4DF808EDFFF7EAFF7A
:1046F00034BF012000205DF808FB00BF4DF808ED35
:10470000FFF7E0FF94BF012000205DF808FB00BF29
:104710004DF808EDFFF7CEFF94BF012000205DF8B3
:1047200008FB00BF4DF808EDFFF7C4FF34BF0120C0
:1047300000205DF808FB00BF4FEA410212F50012AD
:1047400015D211D56FF47873B3EB625212D94FEAD8
:10475000C12343F0004343EA505311F0004F23FAC2
:1047600002F018BF404270474FF00000704750EA17
:10477000013005D111F0004008BF6FF000407047D4
:104780004FF00000704700BF80F0004002E000BF23
:1047900081F0004142001FBF5FEA410392EA030F2C
:1047A0007FEA226C7FEA236C6AD04FEA1262D2EB76
:1047B0001363C1BFD218414048404140B8BF5B427B
:1047C000192B88BF704710F0004F40F4000020F014
:1047D0007F4018BF404211F0004F41F4000121F02A
:1047E0007F4118BF494292EA030F3FD0A2F1010274
:1047F00041FA03FC10EB0C00C3F1200301FA03F1B2
:1048000000F0004302D5494260EB4000B0F5000FD4
:1048100013D3B0F1807F06D340084FEA310102F193
:104820000102FE2A51D2B1F1004F40EBC25008BF45
:1048300020F0010040EA03007047490040EB00000F
:1048400010F4000FA2F10102EDD1B0FA80FCACF13E
:10485000080CB2EB0C0200FA0CF0AABF00EBC2503D
:1048600052421843BCBFD0401843704792F0000F2B
:1048700081F4000106BF80F400000132013BB5E77E
:104880004FEA41037FEA226C18BF7FEA236C21D0F4
:1048900092EA030F04D092F0000F08BF0846704759
:1048A00090EA010F1CBF0020704712F07F4F04D127
:1048B000400028BF40F00040704712F100723CBF3A
:1048C00000F50000704700F0004343F0FE4040F464
:1048D000000070477FEA226216BF08467FEA236322
:1048E0000146420206BF5FEA412390EA010F40F40D
:1048F000800070474FF0000304E000BF10F0004359
:1049000048BF40425FEA000C08BF704743F096433F
:1049100001464FF000001CE050EA010208BF70475A
:104920004FF000030AE000BF50EA010208BF7047E1
:1049300011F0004302D5404261EB41015FEA010CF6
:1049400002BF84460146002043F0B64308BFA3F1EE
:104950008053A3F50003BCFA8CF2083AA3EBC253D0
:1049600010DB01FA02FC634400FA02FCC2F12002EF
:10497000BCF1004F20FA02F243EB020008BF20F026
:104980000100704702F1200201FA02FCC2F120028C
:1049900050EA4C0021FA02F243EB020008BF20EA81
:1049A000DC7070474FF0FF0C1CEAD0521EBF1CEAAF
:1049B000D15392EA0C0F93EA0C0F6FD01A4480EA9D
:1049C000010C400218BF5FEA41211ED04FF0006386
:1049D00043EA501043EA5111A0FB01310CF00040B2
:1049E000B1F5000F3EBF490041EAD3715B0040EAD8
:1049F000010062F17F02FD2A1DD8B3F1004F40EBA8
:104A0000C25008BF20F00100704790F0000F0CF07A
:104A1000004C08BF49024CEA502040EA51207F3A3E
:104A2000C2BFD2F1FF0340EAC250704740F4000019
:104A30004FF00003013A5DDC12F1190FDCBF00F00A
:104A400000407047C2F10002410021FA02F1C2F1B8
:104A5000200200FA02FC5FEA310040F1000053EA54
:104A60004C0308BF20EADC70704792F0000F00F0A2
:104A7000004C02BF400010F4000F013AF9D040EAA8
:104A80000C0093F0000F01F0004C02BF490011F43C
:104A9000000F013BF9D041EA0C018FE70CEAD1533A
:104AA00092EA0C0F18BF93EA0C0F0AD030F0004CBA
:104AB00018BF31F0004CD8D180EA010000F000406E
:104AC000704790F0000F17BF90F0004F084691F02C
:104AD000000F91F0004F14D092EA0C0F01D1420266
:104AE0000FD193EA0C0F03D14B0218BF084608D12F
:104AF00080EA010000F0004040F0FE4040F4000079
:104B0000704740F0FE4040F4400070474FF0FF0C0B
:104B10001CEAD0521EBF1CEAD15392EA0C0F93EA52
:104B20000C0F69D0A2EB030280EA010C49024FEAA4
:104B3000402037D04FF0805343EA111143EA10135D
:104B40000CF000408B4238BF5B0042F17D024FF415
:104B5000000C8B4224BF5B1A40EA0C00B3EB510FF0
:104B600024BFA3EB510340EA5C00B3EB910F24BFD9
:104B7000A3EB910340EA9C00B3EBD10F24BFA3EB5E
:104B8000D10340EADC001B0118BF5FEA1C1CE0D126
:104B9000FD2A3FF650AF8B4240EBC25008BF20F0D9
:104BA000010070470CF0004C4CEA50207F32C2BF2D
:104BB000D2F1FF0340EAC250704740F400004FF0CA
:104BC0000003013A37E792F0000F00F0004C02BFFB
:104BD000400010F4000F013AF9D040EA0C0093F0C5
:104BE000000F01F0004C02BF490011F4000F013B1F
:104BF000F9D041EA0C0195E70CEAD15392EA0C0F87
:104C000008D142027FF47DAF93EA0C0F7FF470AFBE
:104C1000084676E793EA0C0F04D14B023FF44CAF01
:104C200008466EE730F0004C18BF31F0004CCAD196
:104C300030F000427FF45CAF31F000437FF43CAFD2
:104C40005FE700BF0028B8BF40427047014B1868BB
:104C5000704700BF2000002030B5141E05469BB0F1
:104C6000184605DA8B232B604FF0FF301BB030BDA8
:104C70004FF40273ADF80C3014BF04F1FF33234638
:104C8000029305934FF6FF7300910491ADF80E3037
:104C900002461E9B6946284600F072F8431CBCBFC2
:104CA0008B232B60002CE1D0009B00221A70DDE7E3
:104CB00007B5009313460A46014603480068FFF70C
:104CC000CBFF03B05DF804FB200000202DE9F04786
:104CD0008E689E4282460C469046994637D88A890D
:104CE00012F4906F31D0256809696F1A6569022343
:104CF00005EB450595FBF3F509F101033B449D42A6
:104D000038BF1D46530530D5294600F07BFB0646CB
:104D100050B90C23CAF80030A38943F04003A381A3
:104D20004FF0FF30BDE8F0873A46216900F0F8FA0D
:104D3000A38923F4906343F08003A3812661656116
:104D40003E44ED1B2660A5604E464E4500D94E46BA
:104D500032464146206800F0EEFAA3689B1BA36030
:104D600023681E4426600020DCE72A4600F0A4FBEE
:104D700006460028E2D12169504600F0F5FAC8E75E
:104D80002DE9F04F9DB0804603938B891D060C469C
:104D900016460FD50B696BB9402100F033FB20603C
:104DA000206128B90C23C8F800304FF0FF30C7E06D
:104DB000402363610023099320238DF82930302399
:104DC0008DF82A304FF0010B37463D4615F8013B70
:104DD0000BB1252B3ED1B7EB060A0BD0534632461A
:104DE00021464046FFF772FF013000F0A480099B86
:104DF000534409933B78002B00F09D8000234FF033
:104E0000FF32CDE90523049307938DF853301A93AD
:104E10002F46052217F8011B4F4800F031FA049B7A
:104E2000D0B9D90644BF20228DF853201A0744BFB9
:104E30002B228DF853202A782A2A15D0079A2F463C
:104E400000200A25394611F8013B303B092B4DD98A
:104E5000B8B10FE02F46B8E73F4A801A0BFA00F0CE
:104E6000184304903D46D3E7039A111D126803913D
:104E7000002A01DB079204E0524243F0020307924A
:104E800004933B782E2B0CD17B782A2B33D1039BB8
:104E90001A1D1B680392002BB8BF4FF0FF33023777
:104EA00005932E4D39780322284600F0E9F938B1F0
:104EB0004023401B03FA00F0049B03430137049393
:104EC000397827488DF8281006227E1C00F0D8F982
:104ED000002838D0234B13BB039B073323F0070371
:104EE00008330393099B4B4409936DE705FB02329A
:104EF00001200F46A6E700230137059319460A252E
:104F0000384610F8012B303A092A03D9002BC8D0B3
:104F10000591C6E705FB012101230746F0E703AB36
:104F200000932246104B04A94046AFF30080B0F135
:104F3000FF3F8146D6D1A3895B063FF536AF09987E
:104F40001DB0BDE8F08F03AB00932246064B04A9C9
:104F5000404600F081F8EAE7985B00089E5B000895
:104F6000A25B000800000000CD4C00082DE9F047CE
:104F700091461F468A680B69DDF820809342B8BFCE
:104F80001346C9F8003091F8432006460C4612B18A
:104F90000133C9F800302368990642BFD9F80030C0
:104FA0000233C9F80030256815F0060507D104F171
:104FB000190AE368D9F800209B1AAB4228DC94F860
:104FC00043302268003318BF012392062DD404F128
:104FD000430239463046C047013020D02368E56897
:104FE000D9F8002003F00603042B08BFAD1AA3680C
:104FF00022690CBF25EAE57500259342C4BF9B1AC0
:10500000ED184FF000091A344D451AD1002008E080
:105010000123524639463046C047013003D14FF094
:10502000FF30BDE8F0870135C3E7E1185A1C302096
:1050300081F84300224494F8451082F8431002336B
:10504000C5E70123224639463046C0470130E6D045
:1050500009F10109D8E700002DE9F04301F1430C03
:105060000C46097E85B06E291746064698460C9A6E
:1050700000F0B38022D8632936D00AD8002900F086
:10508000B980582900F0838004F1420584F8421069
:1050900032E0642901D06929F6D120681368050639
:1050A00003F104012AD51B681160002B03DA2D22BD
:1050B0005B4284F843206F480A2239E0732900F0EC
:1050C0009D8008D86F2920D07029DDD1236843F056
:1050D0002003236003E0752917D07829D4D17823E1
:1050E00084F84530644855E01368191D1B68116049
:1050F00004F1420584F8423001238CE01B68116002
:1051000010F0400F18BF1BB2CFE713682568181DB9
:105110001060280601D51B6802E06806FBD51B88D5
:1051200054486F2914BF0A220822002184F8431032
:105130006568A560002DC0F29580216821F004010A
:105140002160002B3DD1002D40F08E806546082A5D
:105150000BD12368DB0708D5236962689A42DEBF5A
:10516000302305F8013C05F1FF35ACEB0503236165
:10517000CDF800803B4603AA21463046FFF7F6FEF5
:1051800001304DD14FF0FF3005B0BDE8F083394814
:1051900084F84510136821681D1D1B6815600A06F8
:1051A0000BD5CA0744BF41F0200121601BB922681A
:1051B00022F0200222601022B7E74D0648BF9BB2C2
:1051C000EFE76546B3FBF2F102FB1133C35C05F870
:1051D000013D0B460029F5D1B9E7136825686169DF
:1051E000181D106028061B6801D5196002E06A06C8
:1051F000FBD51980002323616546B9E71368191DA3
:1052000011601D6862680021284600F039F808B175
:10521000401B606063682361002384F84330A7E784
:1052200023692A4639463046C0470130AAD0236850
:105230009B0713D4E068039B9842B8BF1846A3E7C6
:1052400001234A4639463046C04701309AD00135DD
:10525000E368039A9B1AAB42F2DCEBE7002504F10A
:105260001909F5E7002BACD1037884F8423004F13A
:1052700042056CE7A95B0008BA5B0008000000006B
:1052800001F0FF01102A2BDB10F0070F08D010F8F7
:10529000013B013A8B422DD010F0070F42B3F6D1FB
:1052A000F0B441EA012141EA014122F007047FF014
:1052B00000070023F0E80256083C85EA010586EA6B
:1052C000010685FA47F5A3FA87F586FA47F6A5FAA7
:1052D00087F68EB9EED1F0BC01F0FF0102F00702B3
:1052E00032B110F8013B013A83EA010313B1F8D15E
:1052F0000020704701387047002D06BF354603383F
:10530000073815F0010F07D1013015F4807F02BF77
:10531000013015F4C03F0130F0BC0138704700BFC8
:1053200010B5431E0A44914200D110BD11F8014B43
:1053300003F8014FF7E7884210B501EB020307D8E5
:10534000421E99420AD011F8014B02F8014FF8E7CA
:105350008342F5D98118D21AD34200D110BD13F877
:10536000014D01F8014DF7E738B50546002945D054
:1053700051F8043C0C1F002BB8BFE41800F0D2F821
:105380001F4A1368104633B9636014602846BDE8AD
:10539000384000F0C8B8A3420CD921686218934283
:1053A00004BF1A685B68636004BF5218226004601F
:1053B000ECE713465A680AB1A242FAD9196858189C
:1053C000A0420BD120680144581882421960DDD1F7
:1053D000106852685A6001441960D7E702D90C235B
:1053E0002B60D3E7206821188A4204BF11685268F5
:1053F000626004BF091821605C60C7E738BD00BF68
:105400003002002070B5CD1C25F0030508350C2DA9
:1054100038BF0C25002D064601DBA94203D90C2319
:105420003360002070BD00F07DF8214A14682146E9
:1054300091B9204C23681BB9304600F063F8206016
:105440002946304600F05EF8431C24D10C2333601B
:10545000304600F068F8E4E70B685B1B18D40B2BB0
:105460000FD90B60CD50CC18304600F05CF804F139
:105470000B00231D20F00700C31AD3D05A42E2507C
:10548000D0E78C424B6816BF636013600C46EBE7B5
:105490000C464968CCE7C41C24F00304A04205D0A4
:1054A000211A304600F02EF80130CFD02560DBE71E
:1054B0003002002034020020F8B5074614460E469C
:1054C00021B91146BDE8F840FFF79CBF22B9FFF7AC
:1054D0004BFF25462846F8BD00F026F8A0420FD223
:1054E00021463846FFF78EFF05460028F2D03146A8
:1054F0002246FFF715FF31463846FFF735FFE9E74B
:105500003546E7E738B5064C0023054608462360D4
:10551000FAF788FF431C02D1236803B12B6038BD22
:10552000380200207047704751F8043C181F002BC8
:10553000BCBF0B58C0187047537461636B20667210
:10554000616D653A0A000000205230203D20202580
:105550003038580A00000000205231203D2020251C
:105560003038580A00000000205232203D2020250B
:105570003038580A00000000205233203D202025FA
:105580003038580A0000000020523132203D2025DA
:105590003038580A00000000204C52203D202025C1
:1055A0003038580A00000000205043203D202025BC
:1055B0003038580A0000000020505352203D20256A
:1055C0003038580A000000004653522F4641523AE4
:1055D0000A0000002043465352203D202025303849
:1055E000580A00002048465352203D2020253038DC
:1055F000580A00002044465352203D2020253038D0
:10560000580A00002041465352203D2020253038C2
:10561000580A0000204D4D464152203D202530388B
:10562000580A00002042464152203D2020253038B3
:10563000580A00004D6973630A000000204C522F85
:105640004558435F52455455524E3D2025303858F9
:105650000A0000005B486172644661756C745D0A03
:10566000000000005B4275734661756C745D0A0052
:105670005B55736167654661756C745D0A00000077
:1056800000000000000000000102030406070809F2
:10569000646464646400000000000000003E51493E
:1056A000453E00427F400042615149462141454B01
:1056B000311814127F1027454545393C4A49493075
:1056C00001710905033649494936064949291E7EB3
:1056D0001111117E7F494949363E414141227F41A6
:1056E00041221C7F494949417F090909013E41493D
:1056F000497A7F0808087F00417F41002040413FF0
:10570000017F081422417F404040407F020C027F0D
:105710007F0408107F3E4141413E7F090909063E52
:105720004151215E7F091929464649494931010104
:105730007F01013F4040403F1F2040201F3F403835
:10574000403F631408146307087008076151494516
:10575000430000005B416374696F6E5D20415554E6
:105760004F50494C4F54204F4E0D0A005B4163741B
:10577000696F6E5D204D414E55414C204254204F83
:105780004E0D0A005B416374696F6E5D2053706556
:10579000656420557064617465640D0A0000000042
:1057A0005B416374696F6E5D204D6F766520466F57
:1057B000727761726420284669786564290D0A0051
:1057C0005B416374696F6E5D204D6F766520426149
:1057D000636B7761726420284669786564290D0AD5
:1057E000000000005B416374696F6E5D2054757248
:1057F0006E204C6566742028343520646567290D59
:105800000A0000005B416374696F6E5D205475721D
:105810006E205269676874202834352064656729D2
:105820000D0A00005B416374696F6E5D20537069FF
:105830006E204C65667420436F6E74696E756F756B
:10584000730D0A005B416374696F6E5D205370696C
:105850006E20526967687420436F6E74696E756F4D
:1058600075730D0A000000005B416374696F6E5D23
:105870002053544F500D0A005B416374696F6E5D95
:10588000205370656564202B200D0A005B41637412
:10589000696F6E5D205370656564202D200D0A00D0
:1058A0005B416374696F6E5D204175746F2D537435
:1058B0006F707065640D0A00464F525741524400A4
:1058C0004241434B57415244000000004C4546546E
:1058D0000000000052494748540000005741524E12
:1058E000494E4721204F42535441434C45204445A3
:1058F000544543544544000000000000007D000072
:1059000000007E1111117E7F494949363E414141D7
:10591000227F4141221C7F494949417F09090901F0
:105920003E4149497A7F0808087F00417F410020B5
:1059300040413F017F081422417F404040407F02A8
:105940000C027F7F0408107F3E4141413E7F0909E0
:1059500009063E4151215E7F0919294646494949B8
:105960003101017F01013F4040403F1F2040201F87
:105970003F4038403F63140814630708700807610C
:105980005149454333350000373000003130350090
:1059900053797374656D2052656164792E20274DAB
:1059A0002720666F722042542C2027462720666FDE
:1059B00072204175746F70696C6F740D0A0000007D
:1059C000FB21F93FFB2109407CD91240FB21194002
:1059D0007A6A1F407CD92240BBFD2540FB2129402B
:1059E0003A462C407A6A2F405C4731407CD932409D
:1059F0009C6B3440BBFD3540DB8F3740FB21394089
:105A00001BB43A403A463C405AD83D407A6A3F403F
:105A10004C7E40405C4741406C1042407CD9424043
:105A20008CA243409C6B4440AC344540BBFD454098
:105A3000CBC64640DB8F4740EB584840FB214940EE
:105A400083F9A200444E6E00FC291500D1572700AF
:105A5000DD34F50062DBC0003C99950041904300C5
:105A60006351FE00BBDEAB00B761C5003A6E240097
:105A7000D24D42004906E00009EA2E001C92D100F6
:105A8000EB1DFE0029B11C00E83EA700F5358200A1
:105A900044BB2E009CE98400B4267000417E5F0068
:105AA000D6913900538339009CF439008B5F840010
:105AB00028F9BD00F81F3B00DEFF97000F98050096
:105AC000112FEF000A5A8B006D1F6D00CF7E36003C
:105AD00009CB2700464FB7009E663F002DEA5F00C6
